{
  "address": "0x1E1de1cDfa7b91b9607eC7Ca5e514e79E9a75Bb7",
  "abi": [
    {
      "inputs": [
        {
          "internalType": "contract ENS",
          "name": "ensAddr",
          "type": "address"
        },
        {
          "internalType": "contract NameResolver",
          "name": "resolverAddr",
          "type": "address"
        }
      ],
      "stateMutability": "nonpayable",
      "type": "constructor"
    },
    {
      "inputs": [],
      "name": "ADDR_REVERSE_NODE",
      "outputs": [
        {
          "internalType": "bytes32",
          "name": "",
          "type": "bytes32"
        }
      ],
      "stateMutability": "view",
      "type": "function"
    },
    {
      "inputs": [
        {
          "internalType": "address",
          "name": "owner",
          "type": "address"
        }
      ],
      "name": "claim",
      "outputs": [
        {
          "internalType": "bytes32",
          "name": "",
          "type": "bytes32"
        }
      ],
      "stateMutability": "nonpayable",
      "type": "function"
    },
    {
      "inputs": [
        {
          "internalType": "address",
          "name": "owner",
          "type": "address"
        },
        {
          "internalType": "address",
          "name": "resolver",
          "type": "address"
        }
      ],
      "name": "claimWithResolver",
      "outputs": [
        {
          "internalType": "bytes32",
          "name": "",
          "type": "bytes32"
        }
      ],
      "stateMutability": "nonpayable",
      "type": "function"
    },
    {
      "inputs": [],
      "name": "defaultResolver",
      "outputs": [
        {
          "internalType": "contract NameResolver",
          "name": "",
          "type": "address"
        }
      ],
      "stateMutability": "view",
      "type": "function"
    },
    {
      "inputs": [],
      "name": "ens",
      "outputs": [
        {
          "internalType": "contract ENS",
          "name": "",
          "type": "address"
        }
      ],
      "stateMutability": "view",
      "type": "function"
    },
    {
      "inputs": [
        {
          "internalType": "address",
          "name": "addr",
          "type": "address"
        }
      ],
      "name": "node",
      "outputs": [
        {
          "internalType": "bytes32",
          "name": "",
          "type": "bytes32"
        }
      ],
      "stateMutability": "pure",
      "type": "function"
    },
    {
      "inputs": [
        {
          "internalType": "string",
          "name": "name",
          "type": "string"
        }
      ],
      "name": "setName",
      "outputs": [
        {
          "internalType": "bytes32",
          "name": "",
          "type": "bytes32"
        }
      ],
      "stateMutability": "nonpayable",
      "type": "function"
    }
  ],
  "transactionHash": "0x7617c73fb3e04249ea17a223d765625e20d9bfab3afc7b01680ac394a9f564e6",
  "args": [
    "0x8ec078ecC2779959136eE870475c02204B7eA93d",
    "0xCe795Eb8D787b9Ebc8b6Ba86eB55Cc859ce9c522"
  ],
  "numDeployments": 1,
  "solcInputHash": "76d23b5e1e6e1e597b1c832a2a8a7a91",
  "bytecode": "0x608060405234801561001057600080fd5b50604051610c06380380610c0683398101604081905261002f91610177565b600080546001600160a01b03199081166001600160a01b03858116918217845560018054909316908516179091556040516302571be360e01b81527f91d1777781884d03a6757a803996e38de2a42967fb37eeaca72729271025a9e260048201526302571be390602401602060405180830381865afa1580156100b6573d6000803e3d6000fd5b505050506040513d601f19601f820116820180604052508101906100da91906101b1565b90506001600160a01b0381161561015757604051630f41a04d60e11b81523360048201526001600160a01b03821690631e83409a906024016020604051808303816000875af1158015610131573d6000803e3d6000fd5b505050506040513d601f19601f8201168201806040525081019061015591906101d5565b505b5050506101ee565b6001600160a01b038116811461017457600080fd5b50565b6000806040838503121561018a57600080fd5b82516101958161015f565b60208401519092506101a68161015f565b809150509250929050565b6000602082840312156101c357600080fd5b81516101ce8161015f565b9392505050565b6000602082840312156101e757600080fd5b5051919050565b610a09806101fd6000396000f3fe608060405234801561001057600080fd5b506004361061007d5760003560e01c80637cf8a2eb1161005b5780637cf8a2eb14610100578063828eab0e14610127578063bffbe61c14610147578063c47f00271461015a57600080fd5b80630f5a5466146100825780631e83409a146100a85780633f15457f146100bb575b600080fd5b6100956100903660046107c7565b61016d565b6040519081526020015b60405180910390f35b6100956100b6366004610800565b6105d9565b6000546100db9073ffffffffffffffffffffffffffffffffffffffff1681565b60405173ffffffffffffffffffffffffffffffffffffffff909116815260200161009f565b6100957f91d1777781884d03a6757a803996e38de2a42967fb37eeaca72729271025a9e281565b6001546100db9073ffffffffffffffffffffffffffffffffffffffff1681565b610095610155366004610800565b6105ec565b610095610168366004610853565b610647565b60008061017933610702565b604080517f91d1777781884d03a6757a803996e38de2a42967fb37eeaca72729271025a9e26020820152908101829052909150600090606001604080518083037fffffffffffffffffffffffffffffffffffffffffffffffffffffffffffffffe0018152908290528051602090910120600080547f02571be3000000000000000000000000000000000000000000000000000000008452600484018390529193509173ffffffffffffffffffffffffffffffffffffffff909116906302571be390602401602060405180830381865afa15801561025a573d6000803e3d6000fd5b505050506040513d601f19601f8201168201806040525081019061027e9190610922565b905073ffffffffffffffffffffffffffffffffffffffff85161580159061036357506000546040517f0178b8bf0000000000000000000000000000000000000000000000000000000081526004810184905273ffffffffffffffffffffffffffffffffffffffff90911690630178b8bf90602401602060405180830381865afa15801561030f573d6000803e3d6000fd5b505050506040513d601f19601f820116820180604052508101906103339190610922565b73ffffffffffffffffffffffffffffffffffffffff168573ffffffffffffffffffffffffffffffffffffffff1614155b156104d85773ffffffffffffffffffffffffffffffffffffffff8116301461044b576000546040517f06ab59230000000000000000000000000000000000000000000000000000000081527f91d1777781884d03a6757a803996e38de2a42967fb37eeaca72729271025a9e260048201526024810185905230604482015273ffffffffffffffffffffffffffffffffffffffff909116906306ab5923906064016020604051808303816000875af1158015610422573d6000803e3d6000fd5b505050506040513d601f19601f82011682018060405250810190610446919061093f565b503090505b6000546040517f1896f70a0000000000000000000000000000000000000000000000000000000081526004810184905273ffffffffffffffffffffffffffffffffffffffff878116602483015290911690631896f70a90604401600060405180830381600087803b1580156104bf57600080fd5b505af11580156104d3573d6000803e3d6000fd5b505050505b8573ffffffffffffffffffffffffffffffffffffffff168173ffffffffffffffffffffffffffffffffffffffff16146105d0576000546040517f06ab59230000000000000000000000000000000000000000000000000000000081527f91d1777781884d03a6757a803996e38de2a42967fb37eeaca72729271025a9e260048201526024810185905273ffffffffffffffffffffffffffffffffffffffff8881166044830152909116906306ab5923906064016020604051808303816000875af11580156105aa573d6000803e3d6000fd5b505050506040513d601f19601f820116820180604052508101906105ce919061093f565b505b50949350505050565b60006105e682600061016d565b92915050565b60007f91d1777781884d03a6757a803996e38de2a42967fb37eeaca72729271025a9e261061883610702565b604080516020810193909352820152606001604051602081830303815290604052805190602001209050919050565b600154600090819061067090309073ffffffffffffffffffffffffffffffffffffffff1661016d565b6001546040517f7737221300000000000000000000000000000000000000000000000000000000815291925073ffffffffffffffffffffffffffffffffffffffff16906377372213906106c99084908790600401610958565b600060405180830381600087803b1580156106e357600080fd5b505af11580156106f7573d6000803e3d6000fd5b509295945050505050565b60007f303132333435363738396162636465660000000000000000000000000000000060285b8015610795577fffffffffffffffffffffffffffffffffffffffffffffffffffffffffffffffff01600f841682901a81536010909304927fffffffffffffffffffffffffffffffffffffffffffffffffffffffffffffffff01600f841682901a8153601084049350610728565b5050602860002092915050565b73ffffffffffffffffffffffffffffffffffffffff811681146107c457600080fd5b50565b600080604083850312156107da57600080fd5b82356107e5816107a2565b915060208301356107f5816107a2565b809150509250929050565b60006020828403121561081257600080fd5b813561081d816107a2565b9392505050565b7f4e487b7100000000000000000000000000000000000000000000000000000000600052604160045260246000fd5b60006020828403121561086557600080fd5b813567ffffffffffffffff8082111561087d57600080fd5b818401915084601f83011261089157600080fd5b8135818111156108a3576108a3610824565b604051601f82017fffffffffffffffffffffffffffffffffffffffffffffffffffffffffffffffe0908116603f011681019083821181831017156108e9576108e9610824565b8160405282815287602084870101111561090257600080fd5b826020860160208301376000928101602001929092525095945050505050565b60006020828403121561093457600080fd5b815161081d816107a2565b60006020828403121561095157600080fd5b5051919050565b82815260006020604081840152835180604085015260005b8181101561098c57858101830151858201606001528201610970565b8181111561099e576000606083870101525b50601f017fffffffffffffffffffffffffffffffffffffffffffffffffffffffffffffffe0169290920160600194935050505056fea264697066735822122020b6affc4bf506afaa304b7255cac3a8b495571a81a1ef7b4fe88095d6200d8864736f6c634300080d0033",
  "devdoc": {
    "kind": "dev",
    "methods": {
      "claim(address)": {
        "details": "Transfers ownership of the reverse ENS record associated with the      calling account.",
        "params": {
          "owner": "The address to set as the owner of the reverse record in ENS."
        },
        "returns": {
          "_0": "The ENS node hash of the reverse record."
        }
      },
      "claimWithResolver(address,address)": {
        "details": "Transfers ownership of the reverse ENS record associated with the      calling account.",
        "params": {
          "owner": "The address to set as the owner of the reverse record in ENS.",
          "resolver": "The address of the resolver to set; 0 to leave unchanged."
        },
        "returns": {
          "_0": "The ENS node hash of the reverse record."
        }
      },
      "constructor": {
        "details": "Constructor",
        "params": {
          "ensAddr": "The address of the ENS registry.",
          "resolverAddr": "The address of the default reverse resolver."
        }
      },
      "node(address)": {
        "details": "Returns the node hash for a given account's reverse records.",
        "params": {
          "addr": "The address to hash"
        },
        "returns": {
          "_0": "The ENS node hash."
        }
      },
      "setName(string)": {
        "details": "Sets the `name()` record for the reverse ENS record associated with the calling account. First updates the resolver to the default reverse resolver if necessary.",
        "params": {
          "name": "The name to set for this address."
        },
        "returns": {
          "_0": "The ENS node hash of the reverse record."
        }
      }
    },
    "version": 1
  },
  "userdoc": {
    "kind": "user",
    "methods": {},
    "version": 1
  },
  "storageLayout": {
    "storage": [
      {
        "astId": 14876,
        "contract": "contracts/registry/ReverseRegistrar.sol:ReverseRegistrar",
        "label": "ens",
        "offset": 0,
        "slot": "0",
        "type": "t_contract(ENS)14216"
      },
      {
        "astId": 14879,
        "contract": "contracts/registry/ReverseRegistrar.sol:ReverseRegistrar",
        "label": "defaultResolver",
        "offset": 0,
        "slot": "1",
        "type": "t_contract(NameResolver)14870"
      }
    ],
    "types": {
      "t_contract(ENS)14216": {
        "encoding": "inplace",
        "label": "contract ENS",
        "numberOfBytes": "20"
      },
      "t_contract(NameResolver)14870": {
        "encoding": "inplace",
        "label": "contract NameResolver",
        "numberOfBytes": "20"
      }
    }
  }
}