{
  "address": "0x809c39794FB0d930922D9aEF25d3632BE46294D4",
  "abi": [
    {
      "inputs": [
        {
          "internalType": "contract AggregatorInterface",
          "name": "_usdOracle",
          "type": "address"
        },
        {
          "internalType": "uint256[]",
          "name": "_rentPrices",
          "type": "uint256[]"
        }
      ],
      "stateMutability": "nonpayable",
      "type": "constructor"
    },
    {
      "anonymous": false,
      "inputs": [
        {
          "indexed": false,
          "internalType": "address",
          "name": "oracle",
          "type": "address"
        }
      ],
      "name": "OracleChanged",
      "type": "event"
    },
    {
      "anonymous": false,
      "inputs": [
        {
          "indexed": true,
          "internalType": "address",
          "name": "previousOwner",
          "type": "address"
        },
        {
          "indexed": true,
          "internalType": "address",
          "name": "newOwner",
          "type": "address"
        }
      ],
      "name": "OwnershipTransferred",
      "type": "event"
    },
    {
      "anonymous": false,
      "inputs": [
        {
          "indexed": false,
          "internalType": "uint256[]",
          "name": "prices",
          "type": "uint256[]"
        }
      ],
      "name": "RentPriceChanged",
      "type": "event"
    },
    {
      "inputs": [],
      "name": "owner",
      "outputs": [
        {
          "internalType": "address",
          "name": "",
          "type": "address"
        }
      ],
      "stateMutability": "view",
      "type": "function"
    },
    {
      "inputs": [
        {
          "internalType": "string",
          "name": "name",
          "type": "string"
        },
        {
          "internalType": "uint256",
          "name": "expires",
          "type": "uint256"
        },
        {
          "internalType": "uint256",
          "name": "duration",
          "type": "uint256"
        }
      ],
      "name": "premium",
      "outputs": [
        {
          "internalType": "uint256",
          "name": "",
          "type": "uint256"
        }
      ],
      "stateMutability": "view",
      "type": "function"
    },
    {
      "inputs": [
        {
          "internalType": "string",
          "name": "name",
          "type": "string"
        },
        {
          "internalType": "uint256",
          "name": "expires",
          "type": "uint256"
        },
        {
          "internalType": "uint256",
          "name": "duration",
          "type": "uint256"
        }
      ],
      "name": "price",
      "outputs": [
        {
          "internalType": "uint256",
          "name": "",
          "type": "uint256"
        }
      ],
      "stateMutability": "view",
      "type": "function"
    },
    {
      "inputs": [],
      "name": "price1Letter",
      "outputs": [
        {
          "internalType": "uint256",
          "name": "",
          "type": "uint256"
        }
      ],
      "stateMutability": "view",
      "type": "function"
    },
    {
      "inputs": [],
      "name": "price2Letter",
      "outputs": [
        {
          "internalType": "uint256",
          "name": "",
          "type": "uint256"
        }
      ],
      "stateMutability": "view",
      "type": "function"
    },
    {
      "inputs": [],
      "name": "price3Letter",
      "outputs": [
        {
          "internalType": "uint256",
          "name": "",
          "type": "uint256"
        }
      ],
      "stateMutability": "view",
      "type": "function"
    },
    {
      "inputs": [],
      "name": "price4Letter",
      "outputs": [
        {
          "internalType": "uint256",
          "name": "",
          "type": "uint256"
        }
      ],
      "stateMutability": "view",
      "type": "function"
    },
    {
      "inputs": [],
      "name": "price5Letter",
      "outputs": [
        {
          "internalType": "uint256",
          "name": "",
          "type": "uint256"
        }
      ],
      "stateMutability": "view",
      "type": "function"
    },
    {
      "inputs": [],
      "name": "renounceOwnership",
      "outputs": [],
      "stateMutability": "nonpayable",
      "type": "function"
    },
    {
      "inputs": [
        {
          "internalType": "bytes4",
          "name": "interfaceID",
          "type": "bytes4"
        }
      ],
      "name": "supportsInterface",
      "outputs": [
        {
          "internalType": "bool",
          "name": "",
          "type": "bool"
        }
      ],
      "stateMutability": "view",
      "type": "function"
    },
    {
      "inputs": [
        {
          "internalType": "address",
          "name": "newOwner",
          "type": "address"
        }
      ],
      "name": "transferOwnership",
      "outputs": [],
      "stateMutability": "nonpayable",
      "type": "function"
    },
    {
      "inputs": [],
      "name": "usdOracle",
      "outputs": [
        {
          "internalType": "contract AggregatorInterface",
          "name": "",
          "type": "address"
        }
      ],
      "stateMutability": "view",
      "type": "function"
    }
  ],
  "transactionHash": "0x9f4a8fbdf69bb598cf3fb49d5731a86ebd275491822215ae3899cee614d92f36",
  "args": [
    "0xd4825345cCfb2A3dCB310025770cdf722f660677",
    [
      6,
      5,
      4,
      2,
      1
    ]
  ],
  "numDeployments": 1,
  "solcInputHash": "76d23b5e1e6e1e597b1c832a2a8a7a91",
  "bytecode": "0x6101206040523480156200001257600080fd5b5060405162000f4438038062000f44833981016040819052620000359162000183565b62000040336200011d565b600180546001600160a01b0319166001600160a01b0384161790558051819060009062000071576200007162000270565b6020026020010151608081815250508060018151811062000096576200009662000270565b602002602001015160a0818152505080600281518110620000bb57620000bb62000270565b602002602001015160c0818152505080600381518110620000e057620000e062000270565b602002602001015160e081815250508060048151811062000105576200010562000270565b60200260200101516101008181525050505062000286565b600080546001600160a01b038381166001600160a01b0319831681178455604051919092169283917f8be0079c531659141344cd1fd0a4f28419497f9722a3daafe3b4186f6b6457e09190a35050565b634e487b7160e01b600052604160045260246000fd5b600080604083850312156200019757600080fd5b82516001600160a01b0381168114620001af57600080fd5b602084810151919350906001600160401b0380821115620001cf57600080fd5b818601915086601f830112620001e457600080fd5b815181811115620001f957620001f96200016d565b8060051b604051601f19603f830116810181811085821117156200022157620002216200016d565b6040529182528482019250838101850191898311156200024057600080fd5b938501935b82851015620002605784518452938501939285019262000245565b8096505050505050509250929050565b634e487b7160e01b600052603260045260246000fd5b60805160a05160c05160e05161010051610c56620002ee6000396000818161014e015261036101526000818161023f015261039a0152600081816101be01526103cc01526000818161021801526103fe01526000818161010601526104280152610c566000f3fe608060405234801561001057600080fd5b50600436106100d45760003560e01c8063a200e15311610081578063cd5d2c741161005b578063cd5d2c7414610213578063d820ed421461023a578063f2fde38b1461026157600080fd5b8063a200e153146101b9578063a34e3596146101e0578063c8a4271f146101f357600080fd5b806359b6b86c116100b257806359b6b86c14610149578063715018a6146101705780638da5cb5b1461017a57600080fd5b806301ffc9a7146100d95780632c0fd74c1461010157806350e9a71514610136575b600080fd5b6100ec6100e73660046109ea565b610274565b60405190151581526020015b60405180910390f35b6101287f000000000000000000000000000000000000000000000000000000000000000081565b6040519081526020016100f8565b610128610144366004610a2c565b61030d565b6101287f000000000000000000000000000000000000000000000000000000000000000081565b6101786104b2565b005b60005473ffffffffffffffffffffffffffffffffffffffff165b60405173ffffffffffffffffffffffffffffffffffffffff90911681526020016100f8565b6101287f000000000000000000000000000000000000000000000000000000000000000081565b6101286101ee366004610a2c565b6104c6565b6001546101949073ffffffffffffffffffffffffffffffffffffffff1681565b6101287f000000000000000000000000000000000000000000000000000000000000000081565b6101287f000000000000000000000000000000000000000000000000000000000000000081565b61017861026f366004610aab565b61051c565b60007fffffffff0000000000000000000000000000000000000000000000000000000082167f01ffc9a700000000000000000000000000000000000000000000000000000000148061030757507fffffffff0000000000000000000000000000000000000000000000000000000082167ff3a7928300000000000000000000000000000000000000000000000000000000145b92915050565b60008061034f86868080601f0160208091040260200160405190810160405280939291908181526020018383808284376000920191909152506105d892505050565b905060006005821061038c57610385847f0000000000000000000000000000000000000000000000000000000000000000610b10565b905061044f565b816004036103be57610385847f0000000000000000000000000000000000000000000000000000000000000000610b10565b816003036103f057610385847f0000000000000000000000000000000000000000000000000000000000000000610b10565b8160020361042257610385847f0000000000000000000000000000000000000000000000000000000000000000610b10565b61044c847f0000000000000000000000000000000000000000000000000000000000000000610b10565b90505b61049287878080601f0160208091040260200160405190810160405280939291908181526020018383808284376000920191909152508992508891506107df9050565b61049c9082610b4d565b90506104a7816107e8565b979650505050505050565b6104ba61089d565b6104c4600061091e565b565b600061051361050e86868080601f0160208091040260200160405190810160405280939291908181526020018383808284376000920191909152508892508791506107df9050565b6107e8565b95945050505050565b61052461089d565b73ffffffffffffffffffffffffffffffffffffffff81166105cc576040517f08c379a000000000000000000000000000000000000000000000000000000000815260206004820152602660248201527f4f776e61626c653a206e6577206f776e657220697320746865207a65726f206160448201527f646472657373000000000000000000000000000000000000000000000000000060648201526084015b60405180910390fd5b6105d58161091e565b50565b8051600090819081905b808210156107d65760008583815181106105fe576105fe610b65565b01602001517fff000000000000000000000000000000000000000000000000000000000000001690507f80000000000000000000000000000000000000000000000000000000000000008110156106615761065a600184610b4d565b92506107c3565b7fe0000000000000000000000000000000000000000000000000000000000000007fff00000000000000000000000000000000000000000000000000000000000000821610156106b65761065a600284610b4d565b7ff0000000000000000000000000000000000000000000000000000000000000007fff000000000000000000000000000000000000000000000000000000000000008216101561070b5761065a600384610b4d565b7ff8000000000000000000000000000000000000000000000000000000000000007fff00000000000000000000000000000000000000000000000000000000000000821610156107605761065a600484610b4d565b7ffc000000000000000000000000000000000000000000000000000000000000007fff00000000000000000000000000000000000000000000000000000000000000821610156107b55761065a600584610b4d565b6107c0600684610b4d565b92505b50826107ce81610b94565b9350506105e2565b50909392505050565b60009392505050565b600080600160009054906101000a900473ffffffffffffffffffffffffffffffffffffffff1673ffffffffffffffffffffffffffffffffffffffff166350d25bcd6040518163ffffffff1660e01b8152600401602060405180830381865afa158015610858573d6000803e3d6000fd5b505050506040513d601f19601f8201168201806040525081019061087c9190610bcc565b905061089681610890856305f5e100610993565b906109c8565b9392505050565b60005473ffffffffffffffffffffffffffffffffffffffff1633146104c4576040517f08c379a000000000000000000000000000000000000000000000000000000000815260206004820181905260248201527f4f776e61626c653a2063616c6c6572206973206e6f7420746865206f776e657260448201526064016105c3565b6000805473ffffffffffffffffffffffffffffffffffffffff8381167fffffffffffffffffffffffff0000000000000000000000000000000000000000831681178455604051919092169283917f8be0079c531659141344cd1fd0a4f28419497f9722a3daafe3b4186f6b6457e09190a35050565b6000826000036109a557506000610307565b60006109b18385610b10565b9050826109be8583610be5565b1461089657600080fd5b60008082116109d657600080fd5b60006109e28385610be5565b949350505050565b6000602082840312156109fc57600080fd5b81357fffffffff000000000000000000000000000000000000000000000000000000008116811461089657600080fd5b60008060008060608587031215610a4257600080fd5b843567ffffffffffffffff80821115610a5a57600080fd5b818701915087601f830112610a6e57600080fd5b813581811115610a7d57600080fd5b886020828501011115610a8f57600080fd5b6020928301999098509187013596604001359550909350505050565b600060208284031215610abd57600080fd5b813573ffffffffffffffffffffffffffffffffffffffff8116811461089657600080fd5b7f4e487b7100000000000000000000000000000000000000000000000000000000600052601160045260246000fd5b6000817fffffffffffffffffffffffffffffffffffffffffffffffffffffffffffffffff0483118215151615610b4857610b48610ae1565b500290565b60008219821115610b6057610b60610ae1565b500190565b7f4e487b7100000000000000000000000000000000000000000000000000000000600052603260045260246000fd5b60007fffffffffffffffffffffffffffffffffffffffffffffffffffffffffffffffff8203610bc557610bc5610ae1565b5060010190565b600060208284031215610bde57600080fd5b5051919050565b600082610c1b577f4e487b7100000000000000000000000000000000000000000000000000000000600052601260045260246000fd5b50049056fea26469706673582212204d00b692e1d9bdbede5a250abee91191b4c7560d2f01fe4b9d5050831005a19964736f6c634300080d0033",
  "devdoc": {
    "kind": "dev",
    "methods": {
      "owner()": {
        "details": "Returns the address of the current owner."
      },
      "premium(string,uint256,uint256)": {
        "details": "Returns the pricing premium in wei."
      },
      "price(string,uint256,uint256)": {
        "details": "Returns the price to register or renew a name.",
        "params": {
          "duration": "How long the name is being registered or extended for, in seconds.",
          "expires": "When the name presently expires (0 if this is a new registration).",
          "name": "The name being registered or renewed."
        },
        "returns": {
          "_0": "The price of this renewal or registration, in wei."
        }
      },
      "renounceOwnership()": {
        "details": "Leaves the contract without owner. It will not be possible to call `onlyOwner` functions anymore. Can only be called by the current owner. NOTE: Renouncing ownership will leave the contract without an owner, thereby removing any functionality that is only available to the owner."
      },
      "transferOwnership(address)": {
        "details": "Transfers ownership of the contract to a new account (`newOwner`). Can only be called by the current owner."
      }
    },
    "version": 1
  },
  "userdoc": {
    "kind": "user",
    "methods": {},
    "version": 1
  },
  "storageLayout": {
    "storage": [
      {
        "astId": 934,
        "contract": "contracts/ethregistrar/StablePriceOracle.sol:StablePriceOracle",
        "label": "_owner",
        "offset": 0,
        "slot": "0",
        "type": "t_address"
      },
      {
        "astId": 13576,
        "contract": "contracts/ethregistrar/StablePriceOracle.sol:StablePriceOracle",
        "label": "usdOracle",
        "offset": 0,
        "slot": "1",
        "type": "t_contract(AggregatorInterface)13555"
      }
    ],
    "types": {
      "t_address": {
        "encoding": "inplace",
        "label": "address",
        "numberOfBytes": "20"
      },
      "t_contract(AggregatorInterface)13555": {
        "encoding": "inplace",
        "label": "contract AggregatorInterface",
        "numberOfBytes": "20"
      }
    }
  }
}